{
    "_format": "hh-sol-artifact-1",
    "contractName": "WavePortal",
    "sourceName": "contracts/WavePortal.sol",
    "abi": [
        {
            "inputs": [],
            "stateMutability": "nonpayable",
            "type": "constructor"
        },
        {
            "inputs": [],
            "name": "getTotalWaves",
            "outputs": [
                {
                    "internalType": "uint256",
                    "name": "",
                    "type": "uint256"
                }
            ],
            "stateMutability": "view",
            "type": "function"
        },
        {
            "inputs": [
                {
                    "internalType": "string",
                    "name": "_name",
                    "type": "string"
                }
            ],
            "name": "wave",
            "outputs": [],
            "stateMutability": "nonpayable",
            "type": "function"
        }
    ],
    "bytecode": "0x608060405234801561001057600080fd5b506100596040518060400160405280601681526020017f4920616d206120736d61727420636f6e74726163742e0000000000000000000081525061005e60201b61011a1760201c565b6101d8565b6100fa8160405160240161007291906101b6565b6040516020818303038152906040527f41304fac000000000000000000000000000000000000000000000000000000007bffffffffffffffffffffffffffffffffffffffffffffffffffffffff19166020820180517bffffffffffffffffffffffffffffffffffffffffffffffffffffffff83818316178352505050506100fd60201b60201c565b50565b60008151905060006a636f6e736f6c652e6c6f679050602083016000808483855afa5050505050565b600081519050919050565b600082825260208201905092915050565b60005b83811015610160578082015181840152602081019050610145565b60008484015250505050565b6000601f19601f8301169050919050565b600061018882610126565b6101928185610131565b93506101a2818560208601610142565b6101ab8161016c565b840191505092915050565b600060208201905081810360008301526101d0818461017d565b905092915050565b6106f2806101e76000396000f3fe608060405234801561001057600080fd5b50600436106100365760003560e01c8063449d46c01461003b5780639a2cdc0814610057575b600080fd5b61005560048036038101906100509190610471565b610075565b005b61005f6100cf565b60405161006c91906104d3565b60405180910390f35b6000808154809291906100879061051d565b91905055506100cc6040518060400160405280600f81526020017f257320257320686173207761766564000000000000000000000000000000000081525082336101b3565b50565b60006101126040518060400160405280601781526020017f5765206861766520256420746f74616c20776176657321000000000000000000815250600054610252565b600054905090565b6101b08160405160240161012e91906105e4565b6040516020818303038152906040527f41304fac000000000000000000000000000000000000000000000000000000007bffffffffffffffffffffffffffffffffffffffffffffffffffffffff19166020820180517bffffffffffffffffffffffffffffffffffffffffffffffffffffffff83818316178352505050506102ee565b50565b61024d8383836040516024016101cb93929190610647565b6040516020818303038152906040527f95ed0195000000000000000000000000000000000000000000000000000000007bffffffffffffffffffffffffffffffffffffffffffffffffffffffff19166020820180517bffffffffffffffffffffffffffffffffffffffffffffffffffffffff83818316178352505050506102ee565b505050565b6102ea828260405160240161026892919061068c565b6040516020818303038152906040527fb60e72cc000000000000000000000000000000000000000000000000000000007bffffffffffffffffffffffffffffffffffffffffffffffffffffffff19166020820180517bffffffffffffffffffffffffffffffffffffffffffffffffffffffff83818316178352505050506102ee565b5050565b60008151905060006a636f6e736f6c652e6c6f679050602083016000808483855afa5050505050565b6000604051905090565b600080fd5b600080fd5b600080fd5b600080fd5b6000601f19601f8301169050919050565b7f4e487b7100000000000000000000000000000000000000000000000000000000600052604160045260246000fd5b61037e82610335565b810181811067ffffffffffffffff8211171561039d5761039c610346565b5b80604052505050565b60006103b0610317565b90506103bc8282610375565b919050565b600067ffffffffffffffff8211156103dc576103db610346565b5b6103e582610335565b9050602081019050919050565b82818337600083830152505050565b600061041461040f846103c1565b6103a6565b9050828152602081018484840111156104305761042f610330565b5b61043b8482856103f2565b509392505050565b600082601f8301126104585761045761032b565b5b8135610468848260208601610401565b91505092915050565b60006020828403121561048757610486610321565b5b600082013567ffffffffffffffff8111156104a5576104a4610326565b5b6104b184828501610443565b91505092915050565b6000819050919050565b6104cd816104ba565b82525050565b60006020820190506104e860008301846104c4565b92915050565b7f4e487b7100000000000000000000000000000000000000000000000000000000600052601160045260246000fd5b6000610528826104ba565b91507fffffffffffffffffffffffffffffffffffffffffffffffffffffffffffffffff820361055a576105596104ee565b5b600182019050919050565b600081519050919050565b600082825260208201905092915050565b60005b8381101561059f578082015181840152602081019050610584565b60008484015250505050565b60006105b682610565565b6105c08185610570565b93506105d0818560208601610581565b6105d981610335565b840191505092915050565b600060208201905081810360008301526105fe81846105ab565b905092915050565b600073ffffffffffffffffffffffffffffffffffffffff82169050919050565b600061063182610606565b9050919050565b61064181610626565b82525050565b6000606082019050818103600083015261066181866105ab565b9050818103602083015261067581856105ab565b90506106846040830184610638565b949350505050565b600060408201905081810360008301526106a681856105ab565b90506106b560208301846104c4565b939250505056fea26469706673582212205ea1ce4af23a5829607b09f84db84d29109e1cf316b1adda41bcc03c9ed5f20764736f6c63430008110033",
    "linkReferences": {},
    "deployedLinkReferences": {}
}